:020000040800F2
:10000000B07E012039C000086DC000086DC0000836
:100010006DC000086DC000086DC000086DC000080C
:100020006DC000086DC000086DC000086DC00008FC
:100030006DC000086DC000087DDF000887E0000883
:100040006DC00008D1EA00086DC000086DC000084E
:100050006DC000086DC000086DC000086DC00008CC
:100060006DC000086DC000086DC0000801EB0008FD
:1000700029EB000855EB000881EB0008ADEB000808
:10008000D5EB000801EC00082DEC000849EC000855
:10009000B5EC000809ED00085DED0008C9ED0008A9
:1000A000E9ED00086DC000086DC000086DC00008D3
:1000B000FDED000821EE000849EE00086DC00008C3
:1000C0006DC000085DEE000851EF00086DC000082B
:1000D0006DC000084DF000086DC0000861F0000818
:1000E0006DC000086DC000086DC000086DC000083C
:1000F0006DC000086DC000086DC0000875F00008F4
:100100006DC000086DC000086DC000086DC000081B
:1001100009E800081DE800086DC000086DC000086F
:1001200031E8000861E8000895E80008C9E800081F
:10013000FDE800086DC000086DC000086DC0000833
:100140006DC000086DC000086DC000082DE90008F2
:1001500021EA000855EA000889EA0008BDEA00081B
:100160006DC000086DC000086DC000086DC00008BB
:100170006DC000086DC000086DC000086DC00008AB
:100180006DC000086DC000086DC000086DC000089B
:100190006DC000086DC000086DC000086DC000088B
:1001A0006DC000086DC000086DC000086DC000087B
:1001B0006DC000086DC000086DC000086DC000086B
:1001C000DFF810D000F008F8004800470D400208A2
:1001D000AFF30080B0660120064C074D06E0E068F2
:1001E00040F0010394E8070098471034AC42F6D37E
:1001F000FFF7EAFF1C0200084C02000802E008C8F2
:10020000121F08C1002AFAD170477047002001E090
:1002100001C1121F002AFBD1704700004C020008E8
:100220000000002040040000A0D20008E002000806
:1002300000000010A08C0000A0D20008E00200081E
:1002400040040020707A01000C0200080120326492
:100250001205032029030A2501210362102744A067
:100260002526029440DA010801CE33803F724029EE
:100270000C2904D11440420F1E113A02080D04014A
:1002800014180A34BA0308C4B90308CC041A6C045D
:100290001A78041AAC041A2C181A80081A88041A3E
:1002A000BC041AE0041AD4041AB4041A94041A9C64
:1002B000041AA404012A035A010109295C3AC22B39
:1002C0003A403609286009292C715D0402400C0867
:1002D0005A04084203450C024002429602310800CB
:1002E00001FF01FF01FF01FF01FF01FF01FF01FF0E
:1002F00001FF01FF01FF01FF01FF01FF01FF01FFFE
:1003000001FF01FF01FF01FF01FF01FF01FF01FFED
:1003100001FF01FF01FF01FF01FF01FF01FF01FFDD
:1003200001FF01FF01FF01FF01FF01FF01FF01FFCD
:1003300001FF01FF01FF01FF01FF01FF01FF01FFBD
:1003400001FF01FF01FF01FF01FF01FF01FF01FFAD
:1003500001FF01FF01FF01FF01FF01FF01FF01FF9D
:1003600001FF01FF01FF01FF01FF01FF01FF01FF8D
:1003700001FF01FF01FF01FF01FF01FF01FF01FF7D
:1003800001FF01FF01FF01FF01FF01FF01FF01FF6D
:1003900001FF01FF01FF01FF01FF01FF01FF01FF5D
:1003A00001FF01FF01FF01FF01FF01FF01FF01FF4D
:1003B00001FF01FF01FF01FF01FF01FF01FF01FF3D
:1003C00001FF01FF01FF01FF01FF01FF01FF01FF2D
:1003D00001FF01FF01FF01FF01FF01FF01FF01FF1D
:1003E00001FF01FF01FF01FF01FF01FF01FF01FF0D
:0C03F00001FF01FF01FF01FF01FF012DD3
:020000040800F2
:10C000002DE9F04F2DED108AC1F80CD0D0F80CD0EE
:10C01000BDEC108ABDE8F08F62B62846A04709F053
:10C02000AFFB09F095F94EF60453CEF200034FF042
:10C0300080521A6062B6FEE772B6094880F309883A
:10C04000022080F31488BFF36F8F03F063F8054874
:10C05000016841F470010160034800477047000027
:10C06000B066012088ED00E0C1010008FEE7202A4B
:10C0700004DB203A00FA02F1002070479140C2F13F
:10C08000200320FA03F3194390407047202A04DB71
:10C09000203A21FA02F00021704721FA02F3D04041
:10C0A000C2F12002914008431946704710B5441A66
:10C0B0000346944209D28418114403E011F8013D6B
:10C0C00004F8013D521EF9D210BD40EA0104A40754
:10C0D00003D009E010C9121F10C3042AFAD203E0EA
:10C0E00011F8014B03F8014B521EF9D210BDD2B228
:10C0F00001E000F8012B491EFBD270470022F6E751
:10C1000010B513460A4604461946FFF7F0FF2046CD
:10C1100010BD421E12F8013F002BFBD111F8013B6C
:10C1200002F8013B002BF9D17047421C10F8011BAB
:10C130000029FBD1801A704710B5002200E0521C84
:10C14000835C8C5CA34201D1002BF8D1D8B2E1B260
:10C15000401A10BD30B504460020034600E05B1CC9
:10C16000934203D2E05CCD5C401BF8D030BD0000B0
:10C1700070B50F4D00B92868002412E00A4602E0AD
:10C180009E4203D0521C1378002BF9D1DAB222431D
:10C1900005D02BB124B1002100F8011B04E00446B6
:10C1A000401C0678002EE9D12860204670BD0000B2
:10C1B000300400200FB400B58DB010A909900B9089
:10C1C00000914FF0FF300A9000200C900548069037
:10C1D000054807906A4609A80F9900F009FD0DB0BF
:10C1E0005DF814FB0DCC00082BCC00082DE9FF5F97
:10C1F0001D464FF0FF3BD5E9014691465F464FF0A3
:10C200000008A9697F1C01988847296A82468847E7
:10C210000028F6D1BAF1FF3F0CD024F4C064002E00
:10C2200019DD600614D5BAF12B0F09D0BAF12D0F24
:10C230000ED103E0584604B0BDE8F09F44F480649A
:10C24000A9697F1C01988847761E8246002E02DD70
:10C25000BAF1300F03D0B9F1000F26D032E0A9694E
:10C26000761E44F400747F1C019888478246002E95
:10C2700005DDBAF1780F06D0BAF1580F03D0B9F145
:10C28000000F10D01EE0B9F1000F02D0B9F1100F6D
:10C2900018D1A969761E24F400747F1C0198884780
:10C2A0008246102002E0082000E00A20814609E0D2
:10C2B00008FB0908A969761E44F400747F1C0198E4
:10C2C00088478246002E05DD4946504600F07BFC3B
:10C2D0000028EDDAE96901988847A00502D46FF0DB
:10C2E0000100A8E7E00725D1600613D5600502D557
:10C2F000C8F1000000E0404629680A1D2A6009686C
:10C30000220501D5087015E0220701D5088011E04B
:10C3100008600FE02868011D29600068210502D52A
:10C3200080F8008006E0210702D5A0F8008001E037
:10C33000C0F8008038467EE72DE9FF4F087883B0CB
:10C340009946FF2805D0491C2D2804D00024002040
:10C3500008E000200BE00124F9E700EB800003EB8C
:10C360004000491C0B78FF2BF7D104B14042002359
:10C370000293147819461D462D2C01D02B2C04D184
:10C38000521C2D2C13D000240294AA461478FF2CA2
:10C390000FD00A25A3FB057801FB05814FF0000CA7
:10C3A00003FB0C11521CE3194AEB0101EEE70124D7
:10C3B000EAE7814453EA010002D019F5C87F06DAA2
:10C3C00003980021C0E9001107B0BDE8F08F0025F7
:10C3D000AE4E2F46DFF8B882184600F06FFDCDE96B
:10C3E0000001B9F1000002DAC9F1000400E00446DE
:10C3F0000023A74A1AEB030B42EB045A12E0E007B2
:10C4000007D02A4633463846414600F0ECF9074645
:10C4100088462A4633461046194600F0E4F9054698
:10C420000E466410002CEAD1DDE90001B9F1000FDD
:10C430005A46534606DA00F048FA3A46434600F0B8
:10C4400044FA05E000F0CFF93A46434600F0CBF954
:10C45000029A0AB181F00041039AC2E90001B3E7F0
:10C460002DE9FF4F1F468DB0D7E901464FF0FF3849
:10C470002E2045464FF000090B90B9696D1C0E98AF
:10C480008847396A824688470028F6D1BAF1FF3FCB
:10C490000AD024F4D064002E11DDBAF12B0F08D09D
:10C4A000BAF12D0F0BD102E0404611B08DE744F4F4
:10C4B0008064B9696D1C0E9888478246761E69466D
:10C4C000600501D52D2000E02B208DF8000001F142
:10C4D000010B0DF1200809E0B9696D1C0E98884721
:10C4E00082460F9844F40074761E0560002E02DD2B
:10C4F000BAF1300FF0D00B998A453ED144F0800458
:10C5000006E00F99681CA9F1010944F40074086061
:10C51000B9696D1C761E0E98884782463028F0D087
:10C520002BE00B998A4505D1200603D444F0800402
:10C53000761E18E0504604F094F908B30DF113018B
:10C54000761E44F400748B4508D2AAF130000BF833
:10C55000010B200607D5A9F1010003E0200602D453
:10C5600009F101008146A00502D50F99681C0860F9
:10C57000B9696D1C0E9888478246002ED1DC53E0C5
:10C58000002E51DDBAF1650F02D0BAF1450F4BD143
:10C59000A00549D5B9696D1C24F44074761E0E9827
:10C5A00088478246002E0CDD2B2804D0BAF12D0FCF
:10C5B00007D144F48074B9696D1C0E98884782468F
:10C5C000761EE00501D52D2100E02B2108F8011B86
:10C5D000CDF82C8021E00DF12901761E44F4007481
:10C5E00088450CD2AAF1300010F0FF0088F8000056
:10C5F00002D10B99884509D908F1010806E0E00548
:10C6000001D5244801E042F20F708146B9696D1CE2
:10C610000E98884782460F980560002E04DD50462C
:10C6200004F01FF90028D6D1F9690E988847FF2039
:10C630008BF8000088F800000020069007904B4619
:10C640006A4608A906A8FFF777FEA00502D46FF096
:10C6500001002AE714F0240F0AD0E00714D1DDE925
:10C6600006123868031D3B600068C0E900120BE049
:10C67000DDE9060100F032FA0146E00704D138682E
:10C68000021D3A600068016028460EE70000144071
:10C690000000F03FF1D8FFFF2DE9FE4F804681EA10
:10C6A0000300C00F0C46009021F0004123F000452C
:10C6B000B8EB0200A94105D24046214690461C46EF
:10C6C0000B46024623F00040104347D0270DC7F326
:10C6D0000A00C3F30A510290401A019040286BDA15
:10C6E000C3F3130040F4801B0098924620B100234E
:10C6F000D2EB030A63EB0B0B01985946C0F14002E1
:10C700005046FFF7B4FC06460D4650465946019A7E
:10C7100000F047FA10EB08006141002487EA11524B
:10C7200084EAE7731A4340D0009A62B3019A012A5F
:10C730004FEA075215DC001B61EB02014FF000428B
:10C7400002EA0752CDE90042001C41F58011324651
:10C750002B4600F014FB03B0BDE8F08F40462146A5
:10C76000F9E7001B61EB0201001C41F58013001882
:10C770005B412018A2F5001747EB030140EAD57092
:10C78000B6196D4111E06D084FEA360645EAC075ED
:10C790004FEA0752001B61EB0201001C41F58011BA
:10C7A00049084FEA30000019514132462B4603B088
:10C7B000BDE8F04F00F0D4BA0098012240000023F9
:10C7C000D0EB020263EBE073009821464FEAE0747D
:10C7D000B8EB000061EB0401E9E783F000435BE79D
:10C7E00081F0004158E72DE9FE4F81EA030404F08F
:10C7F000004421F0004100944FF0000B23F000436F
:10C8000050EA01045ED052EA03045BD0C3F30A5439
:10C81000C1F30A552C44A4F2F3340194A0FB025452
:10C82000C1F3130141F48011C3F3130343F48013E4
:10C8300001FB024400FB034E840A970A44EA815438
:10C8400047EA8357A4FB076802958D0A05FB078515
:10C850004FEA932C04FB0C542705029D4FEA06581F
:10C8600047EA1637B5EB08056EEB070C870E920EFC
:10C8700047EA811742EA8312A7FB0201B6EB0B01DC
:10C8800064EB00042B0D43EA0C335E1844EB1C50A0
:10C89000DA465146E7FB0201C5F313044FEA0B33B6
:10C8A00043EA14534FEA0432019C43EA0603A4F11D
:10C8B0000C040294009CCDE900B400F060FA03B0CF
:10C8C000BDE8F08F00200146F9E72DE9F04D81EA3F
:10C8D000030404F0004B21F0004514464FF0000A19
:10C8E00023F0004150EA050220D054EA01021DD095
:10C8F000C5F30A570246C5F31303C1F31300C1F38E
:10C900000A5640F4801543F48013A7EB0608101B69
:10C91000D64608F2FD3873EB050002D308F1010892
:10C9200001E092185B41B8F1000F03DA00200146E4
:10C93000BDE8F08D00204FF48011064684460EE0DD
:10C94000171B73EB050705D3121B63EB05030643A7
:10C950004CEA010C49084FEA300092185B4150EA5A
:10C960000107EDD152EA030012D082EA040083EA03
:10C970000501084305D0101BAB4106D2012200235C
:10C9800006E000224FF0004302E06FF00102531076
:10C990001AEB06004CEB085110EB0A0041EB0B01BF
:10C9A000BDE8F04D00F0DCB90EB5C10F80EAE070D3
:10C9B0000844CA07002140F233438DE80E000A46BE
:10C9C0000B4600F0DCF903B000BD0EB540F2334178
:10C9D00002910021CDE900110A460B4600F0CFF983
:10C9E00003B000BD70B5C1F30A5201F00045002448
:10C9F000C1F3130140F2FF3341F480119A4201DA8E
:10CA0000002070BD40F233439A42A2F2334203DC6D
:10CA10005242FFF73BFB00E090402C43F1D04042F4
:10CA200070BDC1F30A5210B5C1F3130140F2FF33D8
:10CA300041F480119A4201DA002010BD40F23343E4
:10CA40009A42A2F2334203DC5242FFF71FFB10BDB1
:10CA5000904010BD00F0004230F000400AD0C10DFF
:10CA600001F56071C0F3160042EA0151C2084007A7
:10CA700011437047002001467047000030B5041E86
:10CA800071F1000404DB4FF00044404264EB01010B
:10CA9000141E73F1000405DB1C464FF000435242A4
:10CAA00063EB04038B4208BF824230BD30B5041EE5
:10CAB00071F1000404DB4FF00044404264EB0101DB
:10CAC000141E73F1000405DB1C464FF00043524274
:10CAD00063EB0403994208BF904230BD01F000436C
:10CAE00030B421F0004150EA010206D00A0DA2F54F
:10CAF0006072C1F31301002A02DC30BC00207047D1
:10CB0000440F44EAC104C100E01830BC00EBC2503D
:10CB100000F09CB830B50B460146002020220124CD
:10CB200009E021FA02F59D4205D303FA02F5491BFB
:10CB300004FA02F52844151EA2F10102F1DC30BD11
:10CB40002DE9F05F0546002092469B468846064642
:10CB5000814640241BE02846414647462246FFF7CF
:10CB600095FA53465A46C01A914110D311461846B9
:10CB70002246FFF77CFA2D1A67EB01084F46224642
:10CB800001200021FFF773FA17EB00094E41201E28
:10CB9000A4F10104DFDC484631462A464346BDE89D
:10CBA000F09F202A06DBCB17203A41FA02F043EA35
:10CBB000E07306E041FA02F3D040C2F12002914056
:10CBC0000843194670473A2800D2303820F0200236
:10CBD000412A01D3A2F13700884201D34FF0FF3040
:10CBE00070470000026811441378016018467047CE
:10CBF000D16004495161044911620021116111465B
:10CC000000F0A2B9E5CB00083FCF0008426842B16E
:10CC1000016811F8013B23B1521EC0E90012184609
:10CC200070470121C160881E704742685AB1C368CD
:10CC3000016843B983688B4205D0491E521CC0E984
:10CC40000012002070474FF0FF3070470029A8BF46
:10CC50007047401C490008BF20F00100704710B425
:10CC6000B0FA80FC00FA0CF050EA010404BF10BCDA
:10CC7000704749B1CCF1200421FA04F411FA0CF107
:10CC800018BF012121430843A3EB0C01CB1D4FEA40
:10CC900000614FEA102042BF002010BC704700EB3B
:10CCA000C35010440029A4BF10BC7047401C490069
:10CCB00008BF20F0010010BC7047420005D0C0F34F
:10CCC000C7525242914201DC0020704700EBC15034
:10CCD000704710B541000CD0C0F3C751962908DC4D
:10CCE0007E2909DC06DB410204D000F0004040F060
:10CCF0007E5010BD002010BDC1F19604C4F120018A
:10CD000000FA01F1E040FFF7A1FFA04010BDF0B430
:10CD100000F0004221F0004120F00040CE0DC30D94
:10CD2000C1F3160141F40001C0F316004C42154650
:10CD300040F40000761E09E010EB440002D582F0BA
:10CD4000004240428842F7D840005B1EB342F9DA05
:10CD500018B1F0BC0021FFF782BF2846F0BC704735
:10CD600010B5141E73F1000408DA401C41F10001F3
:10CD700092185B411A4301D120F0010010BD2DE94A
:10CD8000F04D92469B4611B1B1FA81F202E0B0FA41
:10CD900080F220329046FFF76AF904460F4640EAD7
:10CDA0000A0041EA0B0153465A46084313D0114684
:10CDB00053EA010019D0C8F140025046FFF766F966
:10CDC00005460E46504659464246FFF750F908437D
:10CDD00005D0012004E020463946BDE8F08D002052
:10CDE000054346EAE0762C4337430A986305E40A94
:10CDF000A0EB08000022FD0A44EA47540A3002D59D
:10CE000000200146E9E7010510196941DDE90845FF
:10CE100000196941BDE8F04DA2E72DE9F04D00236E
:10CE20001A461B1A8A4103DB00200146BDE8F08D3B
:10CE3000C1F30A52C1F3130141F480154FF0000B06
:10CE4000D10702D100186D41521E0027044640F25E
:10CE5000FF11384601EB620A3E468046024600203A
:10CE60004FF48011FFF712F9C2197141BB1846EB5C
:10CE70000100B4EB030C75EB000C04D3E41A65EB72
:10CE8000000517460E46241908F101006D41804641
:10CE90003428E3DDF91946EB0600091BA84103D24B
:10CEA0004FF0FF32134601E0002213461BEB070050
:10CEB00046EB0A51BDE8F04DFFF752BF0EB540F208
:10CEC000334202920022CDE900221346FFF757FFBA
:10CED00003B000BDC1F30A52C1F3130140F2FF33A6
:10CEE00041F480119A4202DA00200146704740F274
:10CEF00033439A42A2F2334202DC5242FFF7C6B8F1
:10CF0000FFF7B5B8002801DBC0F10040002901DBC4
:10CF1000C1F10041814202D24FF0004004E04FF0E5
:10CF2000005001D14FF0C0404FEA2062EFF3008182
:10CF300062F31F6181F30088704700207047C0B220
:10CF40004FF4F05100F098B92DE9F34F8BB04FF04A
:10CF5000000801F10C000C464FF0010B46460DF1A4
:10CF6000080A01906269012101989047051E2DD0A1
:10CF7000252D2CD0216A8847C0B162690121019812
:10CF80009047216A88470028F7D1411E62690198BD
:10CF9000904700E0761CA1690B988847216A884772
:10CFA0000028F7D1E1690B988847DBE7A1690B9866
:10CFB00088470746A84201D1761CD3E7E1690B9860
:10CFC00088477F1C02D1B8F1000F6FD047E10027DE
:10CFD00062693D463946019890472A2804D1626922
:10CFE0000121019890470125DFF8889262690121AB
:10CFF00001989047A0F130010A290AD24F45E5DC9B
:10D0000007EB870100EB4107303FDFD445F0100507
:10D01000ECE7E90601D46FF000476C280AD04C28F1
:10D0200014D0682815D06A280DD074281CD07A280E
:10D030001AD01DE062690121019890476C2802D046
:10D0400045F0040514E045F002050DE045F020052B
:10D050000AE06269012101989047682802D045F0F2
:10D06000080505E045F400656269012101989047D3
:10D07000C4E9015765283DD019DC58287AD00CDC6A
:10D08000452837D004DC252826D0412831D131E08D
:10D0900046282FD047282CD12CE05B2877D0612858
:10D0A00028D063287CD0642823D15AE0D1E06F28AF
:10D0B00048D008DC66281DD067281BD0692821D0FD
:10D0C0006E2816D127E0702845D0732868D07528BF
:10D0D00047D078280DD14DE0A1690B9888470546C7
:10D0E00025283FF469AFE1690B9888476D1C3FF430
:10D0F0006AAFB4E023466A466FF001000B99FFF770
:10D10000AFF99FE045F040006060A80723464FF06C
:10D11000000236D43EE0E8077FF447AF2068011DE7
:10D1200021600068290501D506701BE7290701D594
:10D13000068017E7A90703D5F117C0E9006111E7D9
:10D1400006600FE745F040006060A80723464FF0F7
:10D15000080216D41EE040F60E0125EA01006060C8
:10D1600016E045F040006060A80723464FF00A0231
:10D1700007D40FE045F040006060A80708D52346BB
:10D1800010226FF001000B99AFF300805AE007E026
:10D19000234610226FF001000B99FFF727F851E0AA
:10D1A0004FF000094F464B46632802D05B2807D05A
:10D1B00041E02079C00601D40120A06001273AE0B7
:10D1C00062690121019890475E2805D14FF001095D
:10D1D0006269494601989047216939B900210A4698
:10D1E000534643F82120491C0829FADBB0B32169D2
:10D1F00069B9C11700EBD16253110AEB830122F028
:10D200001F02821A01200B68904003430B60626981
:10D210000121019890475D28E8D1B9F1000F09D0AC
:10D220000020514651F82020D24341F82020401CD4
:10D230000828F7DB02AB224600976FF001000B993C
:10D24000AFF3008000280CDA401C08D1BBF1000FBE
:10D2500005D04FF0FF300DB0BDE8F08FFFE740463E
:10D26000F9E7E90701D108F1010806444FF0000B86
:10D2700078E60000CCCCCC0C7F2801D9002208E055
:10D28000064A02EB5002C007127800D1120902F0E0
:10D290000F0201209040084070470000A0B303082F
:10D2A00070B58C1810F8015B15F0070301D110F868
:10D2B000013B2A1106D110F8012B03E010F8016B95
:10D2C00001F8016B5B1EF9D12B0705D40023521E18
:10D2D0000DD401F8013BFAE710F8013BCB1A921C80
:10D2E00003E013F8015B01F8015B521EF9D5A1427E
:10D2F000D8D3002070BD6FEA11210160704700296A
:10D30000816814BF41F0010121F001018160704783
:10D31000084AD2F80413084B1940D0E9003C43EA0C
:10D320000C03D0E902C04CEA000018430843C2F8DD
:10D330000403704700200140E030FCFF10B50121DC
:10D34000080200F059FEBDE8104000214FF4807043
:10D3500000F052BE826822F470221143816070474F
:10D36000826822F4401211438160704781B0084402
:10D3700028300090006801B080B27047012303FAA2
:10D3800001F1002A426814BF114322EA0101416001
:10D390007047000010B44268D1E9003C22F480726A
:10D3A00022F0407242EA0C221A43426082680C4B1F
:10D3B0001A40D1E904C343EA0C03D1E9024C4CEA18
:10D3C000440C43EA0C031A438260C26A097E22F4C9
:10D3D0007002491EC9B242EA0151C16210BC7047D5
:10D3E000FDF7FFC030B4072509290CD9C468A1F1A5
:10D3F0000A0C0CEB4C0C05FA0CF5AC4303FA0CF3DD
:10D400002343C36009E0046901EB410C05FA0CF504
:10D41000AC4303FA0CF323430361836BC3F3015C56
:10D42000A2EB0C02921C02EB82024FF01F0C0CFAD2
:10D4300002FC23EA0C0391401943816330BC70471E
:10D44000826B491E22F4401242EA01518163704707
:10D4500005490028D1F8040314BF40F4005020F41B
:10D460000050C1F8040370470020014030B4072584
:10D4700009290CD9C468A1F10A0C0CEB4C0C05FA73
:10D480000CF5AC4303FA0CF32343C36009E00469D1
:10D4900001EB410C05FA0CF5AC4303FA0CF3234302
:10D4A00003614FF01F0C072A0CD2436B521E02EB94
:10D4B00082020CFA02FC23EA0C03914019434163F7
:10D4C00030BC70470D2A0CD2036BD21F02EB8202D4
:10D4D0000CFA02FC23EA0C0391401943016330BCAF
:10D4E0007047C36A0D3A02EB82020CFA02FC23EA8F
:10D4F0000C0391401943C16230BC704705490028B4
:10D50000D1F8040314BF40F4000020F40000C1F877
:10D5100004037047002001400029016814BF41F056
:10D52000010121F001010160704700002DE9F003C5
:10D53000016821F00101016000210160416081600A
:10D54000C160016121214161444A45494FF03D08D4
:10D55000904202BFC1F80880BDE8F0037047414A1D
:10D560004FF47464904202BF8C60BDE8F0037047D2
:10D570003D4A4FF47415904202BF8D60BDE8F00340
:10D5800070473A4A4FF07466904202BF8E60BDE821
:10D59000F0037047364B374A984202BFCA60BDE875
:10D5A000F0037047DFF8D0C0344B604502BFCB605A
:10D5B000BDE8F0037047324FDFF8C8C0B84202BF81
:10D5C000C1F80CC0BDE8F0037047DFF8BC904FF025
:10D5D0003D57484502BFCF60BDE8F0037047DFF814
:10D5E000AC902B49484502BFC1F80080BDE8F0036C
:10D5F0007047DFF8A080404502BF0C60BDE8F00333
:10D600007047254CA04202BF0D60BDE8F003704793
:10D61000224CA04202BF0E60BDE8F0037047204CD0
:10D620002049A04202BF0A60BDE8F00370471E4ACD
:10D63000904202BF0B60BDE8F00370471B4A904266
:10D6400002BFC1F800C0BDE8F0037047184A90421D
:10D6500008BF0F60BDE8F003704700001060024093
:10D660000060024028600240406002405860024072
:10D67000706002403D00002088600240400F0020A2
:10D68000A060024000003D20B860024010640240EB
:10D69000086402402864024040640240586402402A
:10D6A000706402400C64024088640240A06402403E
:10D6B000B864024011F0800F07D04369002A0CBF04
:10D6C00023F0800343F080034361802908BF704743
:10D6D00001F01E01002A02680CBF22EA0101114379
:10D6E0000160704710B402681B4BD1F80CC01A409F
:10D6F0000B6843EA0C03D1E905C44CEA040C43EA85
:10D700000C03D1F81CC043EA0C03D1F820C043EA53
:10D710000C03D1F824C043EA0C03D1F828C043EA33
:10D720000C03D1F834C043EA0C03D1F838C043EA03
:10D730000C031A4302604269D1E90B3C22F0070254
:10D7400043EA0C031A4342610A6942604A688260F4
:10D750008968C16010BC70473F801CF070B50C46F2
:10D76000054614F0D3FC0022815CFF2905D0214638
:10D77000284600F0E1FA80B270BD521CB2F5804F2D
:10D78000F2D3092070BD00000C490A880C490988B1
:10D7900060B1012810D14EF6EE6009B11AB107E070
:10D7A000824207D108E0814206D103E022B109B1EB
:10D7B000AB207047012070470020704700400008F0
:10D7C000008000082DE9F05FDFF894920024651EC8
:10D7D000B9F80010A34E30882B0CDFF88C82DFF8EC
:10D7E0008CA2A6F1020B00297DD0A1F6EE61B1F565
:10D7F000604146D001F6EF61B1F5005F08D002212B
:10D800000820FFF7ABFF092800F0188100F020B9CD
:10D81000E8B1A0F56E41EE394FF002014FF008007B
:10D8200004D0FFF79BFF09281BD024E0FFF796FFE9
:10D83000092818BFBDE8F09F0021304600F0FAFA31
:10D8400080B2092818BFBDE8F09F00F006B9022198
:10D850000820FFF783FF092818BFBDE8F09F00F0FC
:10D86000FCB80021484600F0E5FA092803D102215E
:10D870001020FFF773FF80B2092818BFBDE8F09FA2
:10D88000EBE0A0B198424FF0020159D11020FFF710
:10D8900065FF092818BFBDE8F09F0021484600F049
:10D8A000C9FA80B2092818BFBDE8F09FD5E0B9F8E1
:10D8B000060038F81470B84208BF25B2AC4228D030
:10D8C00001260020FFF760FFAB2808BFAB2614D06D
:10D8D00009EB80310BEB80308A1C90420DD9018816
:10D8E000B94207D100E040E030F8020CAAF800008D
:10D8F000002602E0001F9042F1D8012E09D038F82E
:10D900001400BAF8001000F0DDF8092818BFBDE8CF
:10D91000F09F601C84B2B4F57F7FC8D300214846D5
:10D9200000F088FA80B2092818BFBDE8F09F0221F4
:10D930001020FFF713FF092818BFBDE8F09F8CE007
:10D940000820FFF70BFF092809D10021484600F005
:10D9500071FA092803D102211020FFF7FFFE80B2DF
:10D96000092818BFBDE8F09F77E050B198421ED15A
:10D9700002211020FFF7F2FE092818BFBDE8F09F32
:10D980006BE002210820FFF7E9FE092809D10021F8
:10D99000484600F04FFA092803D102211020FFF772
:10D9A000DDFE80B2092818BFBDE8F09F55E0F08881
:10D9B00038F814B0584508BF25B2AC4227D001272B
:10D9C0000020FFF7E1FEAB2808BFAB2713D0284AA1
:10D9D00009EB803102EB80308A1C90420BD9018820
:10D9E000594505D130F8020CAAF80000002702E0E2
:10D9F000001F9042F3D8012F09D038F81400BAF86C
:10DA0000001000F05FF8092818BFBDE8F09F601C07
:10DA100084B2B4F57F7FCAD30021304600F00AFA01
:10DA200080B2092818BFBDE8F09F02210820FFF747
:10DA300095FE092818BFBDE8F09F0EE0002148467A
:10DA400000F0F8F9092803D102211020FFF786FE23
:10DA500080B2092818BFBDE8F09F0920BDE8F09FFB
:10DA60000040000800800008B06A00206600002026
:10DA7000FE7F00082DE9F04104460E4601250F4FB8
:10DA80000020FFF781FEAB2808BFBDE8F08107EB5F
:10DA900080310B4A02EB8032881C82420AD91388FB
:10DAA000A34204D132F8020C3080002502E0121F9C
:10DAB0008242F4D82846BDE8F0810000004000080A
:10DAC000FE7F000870B505460E46124C0120FFF798
:10DAD0005BFEAB2808BF70BD04EB80340E4901EB40
:10DAE0008030844206D22168B1F1FF3F04D0241D6A
:10DAF0008442F8D3802070BD3146204600F09AF968
:10DB000009281CBF80B270BD2946A01C00F092F904
:10DB100080B270BD00400008FE7F00082DE9F04F84
:10DB200083B0074600200C46ADF8040001A9384632
:10DB3000FFF7A0FF002801BFBDF80400A0420920A4
:10DB400003B008BFBDE8F08F4348406810F0040FF1
:10DB50001EBF072003B0BDE8F08F21463846FFF70F
:10DB6000B1FF80281CBF03B0BDE8F08F2646DFF868
:10DB7000EC8000242046CDF80080FFF705FEAB25A1
:10DB8000012808BF4FF0100B09D000281EBF2846FF
:10DB900003B0BDE8F08F32484FF0080B00904EF60E
:10DBA000EE61009800F046F9092850D13146384618
:10DBB000FFF788FF092807BFDFF8A890DFF8A8A0C3
:10DBC00003B0BDE8F08F39F81460BE4228D00125BB
:10DBD0000020FFF7D9FDAB2808BFAB2513D0234A9F
:10DBE00008EB803102EB80308A1C90420BD901880F
:10DBF000B14205D130F8020CAAF80000002502E07D
:10DC0000001F9042F3D8012D0AD039F81400BAF859
:10DC10000010FFF757FF09281CBF03B0BDE8F08FC5
:10DC2000601C84B2B4F57F7FCDD302215846FFF744
:10DC300095FD09281CBF03B0BDE8F08F00210098B6
:10DC400000F0F8F8092804BF03B0BDE8F08F80B2F7
:10DC500003B0BDE8F08F00000070004000400008F5
:10DC600000800008B06A002066000020FE7F0008E7
:10DC70000149086070470000143C014001490860F8
:10DC800070470000143C0140034A0146002012681E
:10DC90000A4218BF01207047143C0140C368214A62
:10DCA0000168002B34D0136823EA01011160111DB3
:10DCB0000A6803689A430A60416801F1804101F5EE
:10DCC0009E310A6803681A430A60174A116803689C
:10DCD00099431160131D1968D0F800C021EA0C01A6
:10DCE00019608168102908D001F1804101F59E3149
:10DCF0000A6800681043086070471168D0F800C0D7
:10DD000041EA0C0111601968006808431860704707
:10DD1000406800F1804000F59E30026822EA01016F
:10DD200001607047003C0140083C01400149086027
:10DD3000704700000C3C024070B50646002551B10A
:10DD4000012908BF4FF4807505D002290CBF4FF49C
:10DD500000754FF4407500F0C1F8092818BF70BD78
:10DD60000F4C206820F44070206020682843206019
:10DD7000206820F0F8002060206846F00201084387
:10DD80002060206840F48030206000F0A7F821680F
:10DD900021F002012160216821F0F801216070BDAD
:10DDA000103C02400F4909200A6812F4803F1CBF52
:10DDB000012070470A6812F0100F1CBF0620704740
:10DDC0000A6812F4807F1CBF022070470A6812F0B4
:10DDD000E00F1CBF07207047096811F0020F18BF41
:10DDE000082070470C3C02400248016841F00041A5
:10DDF00001607047103C024070B50D46064600F0C9
:10DE00006DF8092818BF70BD094C206820F44070D7
:10DE1000206020682060206840F00100206035709C
:10DE200000F05CF8216821F00101216070BD000064
:10DE3000103C024070B50D46064600F04FF8092828
:10DE400018BF70BD0A4C206820F440702060206824
:10DE500040F480702060206840F001002060358030
:10DE600000F03CF8216821F00101216070BD000044
:10DE7000103C024070B50D46064600F02FF8092808
:10DE800018BF70BD0A4C206820F4407020602068E4
:10DE900040F400702060206840F001002060356090
:10DEA00000F01CF8216821F00101216070BD000024
:10DEB000103C02400548006810F0004F08BF704752
:10DEC000034904480160044901607047103C024066
:10DED00023016745043C0240AB89EFCD08B509201A
:10DEE0000090FFF75FFF009001280CBF114908BDAB
:10DEF00009200A6812F4803F18BF012016D10A6871
:10DF000012F0100F18BF062010D10A6812F4807F9B
:10DF100018BF02200AD10A6812F0E00F18BF0720CC
:10DF200004D10A6812F0020F18BF082000900128DF
:10DF3000DED008BD0C3C024002494CF6CC400860E3
:10DF4000704700000030004002494AF6AA200860ED
:10DF500070470000003000400149486070470000F1
:10DF600000300040014988607047000000300040E8
:10DF70000149086070470000003000400548016812
:10DF800021F001010160EFF30980683080F3098816
:10DF90007047000034EF00E0044A0029116814BF04
:10DFA000084321EA0000106070470000303802404A
:10DFB000044A0029116814BF084321EA00001060D8
:10DFC0007047000040380240044A0029116814BF1D
:10DFD000084321EA0000106070470000203802402A
:10DFE000044A0029116814BF084321EA00001060A8
:10DFF0007047000044380240044A0029116814BFE9
:10E00000084321EA000010607047000024380240F5
:10E010000248016841F08071016070477438024025
:10E0200000224109012904BF0849096804D00229D6
:10E030000CBF07490749096800F01F00012303FAD4
:10E0400000F0084218BF0122104670470038024015
:10E0500070380240743802408A0721F0030101F150
:10E06000804101F59831120F0F23D1F808C8934071
:10E070002CEA0303C1F80838D1F808389040184357
:10E08000C1F80808704710B572B607F0B3FA62B667
:10E09000BDE8104002F088BC0029016812BF41F0C1
:10E0A00080014FF67F721140016070470A884B88EB
:10E0B000B1F806C01A438B8843EA0C031A430B8954
:10E0C0001A434B8989891A431143416470470029D7
:10E0D000416812BF41F001014FF6FE7211404160EC
:10E0E00070470123D0F820C08B40DB439BB20CEA81
:10E0F00003030362036A02FA01F189B21943016260
:10E1000070470423D0F820C08B40DB439BB20CEA5D
:10E1100003030362036A02FA01F189B2194301623F
:10E120007047C94389B2016170470029016812BF75
:10E1300041F001014FF6FE72114001607047002965
:10E14000416C14BF41F40041C1F30E0141647047BA
:10E1500010B5A0F18041B1F580314AD0B0F1804FC7
:10E160005BD0A0F18041B1F580614CD0A0F180413D
:10E17000B1F500615BD0A0F18041B1F5406160D0A4
:10E18000A0F18041B1F5805165D0A0F18041B1F599
:10E19000A0516AD0A0F18041B1F582316FD0A0F1D9
:10E1A0008041B1F5A03174D0A0F18041B1F5A23128
:10E1B0007AD0A0F18041B1F5A4317DD0A0F18041A9
:10E1C000B1F5C05179D0A0F18041B1F5E05175D0E1
:10E1D000A0F18041B1F5005118BF10BD0121080226
:10E1E000FFF7F2FEBDE8104000214FF48070FFF70A
:10E1F000EBBE01210846FFF7FFFE0021BDE81040FD
:10E200000120FFF7F9BE01210220FFF7DDFE00210A
:10E21000BDE810400220FFF7D7BE01210846FFF7F6
:10E22000D3FE0021BDE810400120FFF7CDBE012143
:10E230000420FFF7C9FE0021BDE810400420FFF7CD
:10E24000C3BE01210820FFF7BFFE0021BDE810403A
:10E250000820FFF7B9BE01211020FFF7B5FE00210D
:10E26000BDE810401020FFF7AFBE01212020FFF7CE
:10E27000ABFE0021BDE810402020FFF7A5BE012124
:10E280000220FFF7B9FE0021BDE810400220FFF791
:10E29000B3BE01210804FFF7AFFEBDE81040002126
:10E2A0004FF48030FFF7A8BE01214804FFF7A4FE19
:10E2B00000214FF4003002E005E00FE018E0BDE877
:10E2C0001040FFF799BE01218804FFF795FEBDE8D5
:10E2D000104000214FF48020FFF78EBE0121402026
:10E2E000FFF772FE0021BDE810404020FFF76CBE32
:10E2F00001218020FFF768FE0021BDE8104080204A
:10E30000FFF762BE30B4D0F808C01FFA8CF5D0F821
:10E3100018C01FFA8CF4D0F820C025F00705294357
:10E3200024F0030424F4407440F201152C434FF60A
:10E33000FF751FFA8CFC05EA03132CF0220C1A431C
:10E3400042EA0C0281608461026230BC7047416124
:10E35000704703690022C0680B4200EA01001CBF3D
:10E360000028012210467047002AC26811BF1143DD
:10E37000C94389B21140C160704710B4026A4FF6B8
:10E38000FE731A400262026A436892B2D0F818C063
:10E390009BB21FFA8CFC0C882CF0730C44EA0C0C1A
:10E3A0008C8922F0020222434C882243A0F180444F
:10E3B000B4F580341CBFA0F18044B4F582340DD193
:10E3C000CC8922F0080222438C8822F004022243E6
:10E3D0000C8A23F4407323434C8A23434360C0F8E0
:10E3E00018C089684163026210BC7047826992B2AA
:10E3F00022F0080211438161704730B4026A4FF67F
:10E40000EF731A400262026A436892B2D0F818C0F1
:10E410009BB21FFA8CFC2CF4E6440D884FF6FF7C6F
:10E420000CEA05252C438D8922F020020CEA051503
:10E430002A434D880CEA05152A43A0F18045B5F51D
:10E4400080351CBFA0F18045B5F5823516D1CD8948
:10E4500022F080020CEA05152A438D8822F0400242
:10E460000CEA05152A430D8A23F440630CEA85055E
:10E470002B434D8A0CEA850C4CEA0303436084610C
:10E4800089688163026230BC704782694FF6FF730E
:10E4900092B222F4006203EA0121114381617047C4
:10E4A00030B4026A4FF6FF631A400262026A4368A0
:10E4B00092B2D0F81CC09BB21FFA8CFC0C882CF0D6
:10E4C000730C44EA0C048D894FF6FF7C22F4007231
:10E4D0000CEA05252A434D880CEA05252A43A0F1BC
:10E4E0008045B5F580351CBFA0F18045B5F5823576
:10E4F00016D1CD8922F400620CEA05252A438D88C5
:10E5000022F480620CEA05252A430D8A23F4405345
:10E510000CEA05152B434D8A0CEA051C4CEA030353
:10E520004360C4618968C163026230BC7047C269DC
:10E5300092B222F008021143C161704730B4026AFE
:10E540004EF6FF731A400262026A1FFA82FC4268AA
:10E55000C36992B20D889BB24FF6FF7423F4E64371
:10E5600004EA05252B438D892CF4005C04EA05356B
:10E5700045EA0C0C4D8804EA053545EA0C0CA0F17F
:10E580008045B5F580351CBFA0F18045B5F58235D5
:10E5900005D10D8A22F4804204EA851422434260A8
:10E5A000C36189680164C0F820C030BC7047C2698B
:10E5B0004FF6FF7392B222F4006203EA0121114385
:10E5C000C1617047826892B222F07002114381608B
:10E5D000704782684FF67F731A40826082681143E9
:10E5E0008160704710B44FF0010C046A00F1180309
:10E5F0000CFA01FC6FEA0C0C1FFA8CFC04EA0C0C00
:10E60000C0F820C0002918BF082914D0A1F10400C7
:10E61000C0F34E001844016848F6FF7301EA030195
:10E62000016001684FF6FF7303EA022241EA02012A
:10E63000016010BC704703EB510001684FF68F7307
:10E6400001EA03010160016841EA0201016010BCB6
:10E65000704742684FF68F731A4042604268114318
:10E660004160704782684FF6F8731A408260826892
:10E67000114381607047C1627047000010B40268A6
:10E68000DFF874C01D4B92B2604518BF984211D09C
:10E69000B0F1804F1CBFA0F18044B4F5806409D074
:10E6A000A0F18044B4F500641CBFA0F18044B4F52F
:10E6B000406403D14C8822F070022243A0F18044D0
:10E6C000B4F580541CBFA0F18044B4F5A05403D02D
:10E6D0000C8922F44072224302604A68C2620A88AE
:10E6E0008262604512BF9842897A01634FF001014E
:10E6F000416110BC7047000000000140000401406F
:10E700002DE9F04105462BF061FF3D4E202030837E
:10E7100000BF00BF00BF00BF00BF00BF00BF00BF01
:10E7200000BF00BF00BF00BF00BF00BF00BF00BFF1
:10E7300000BF344B4FF08061196000BF00BF00BFC5
:10E7400000BF00BF00BF00BF00BF00BF00BF00BFD1
:10E7500000BF00BF00BF00BF002180244FF0010CAC
:10E7600024FA01F22A40002A18BF01222CEA0202F0
:10E770004FEA826714BF0122002247EA82221A6010
:10E7800000BF00BF00BF00BF00BF00BF00BF00BF91
:10E7900000BF00BF00BF00BF00BF00BF00BF00BF81
:10E7A00000BF01F101010829DADB00BF00BF00BF93
:10E7B00000BF00BF00BF00BF00BF00BF00BF00BF61
:10E7C00000BF00BF00BF00BF00BF00BF00BF4FF4CD
:10E7D0008061196000BF00BF00BF00BF00BF00BF65
:10E7E00000BF00BF00BF00BF00BF00BF00BF00BF31
:10E7F00000BF00BF00BF7083BDE8F0412BF0F0BE4A
:10E80000000002401804024010B5034820F024FC28
:10E81000BDE8104002F0C8B8A44B012010B5034871
:10E8200020F01AFCBDE8104002F0BEB8FC4C0120FC
:10E83000084810B5006800F03D010748016007482E
:10E84000026C002A1CBF406C9047BDE8104002F0EB
:10E85000ABB8000000640240086402401845012083
:10E86000094810B500683D21084A01EA9011880165
:10E8700010600748826C002A1CBFC06C9047BDE83E
:10E88000104002F091B800000064024008640240A9
:10E8900018450120094810B500683D21084A01EAE1
:10E8A0001041080410600748026D002A1CBF406D2B
:10E8B0009047BDE8104002F077B8000000640240C5
:10E8C0000864024018450120094810B500683D2140
:10E8D000084A01EA9051880510600748826D002AB5
:10E8E0001CBFC06D9047BDE8104002F05DB800004D
:10E8F000006402400864024018450120084810B531
:10E90000006800F03D01074801600748026E002AD8
:10E910001CBF406E9047BDE8104002F045B80000B3
:10E92000046402400C6402401845012070B53B4E5F
:10E93000346D6069A16901EA0005656115F4805FC5
:10E940000CD00020F065304602F05AFD7068026875
:10E95000002A5FD00021304690475BE015F4005F4D
:10E9600018BFD4F8080815F0080F05D07068C16802
:10E9700000291CBF3046884715F0100F0AD072B628
:10E98000A06920F01000A06106F16000002106F0EF
:10E9900043FF62B6D4F8184815F4802F1BD014F04A
:10E9A000010F03D0002130461DF027FC14F0020FA8
:10E9B00003D0012130461DF020FC14F0040F03D0D9
:10E9C000022130461DF019FC14F0080F03D003217A
:10E9D00030461DF012FC15F4002F1BD014F4803FBC
:10E9E00003D0002130461DF083FC14F4003F03D017
:10E9F000012130461DF07CFC14F4802F03D002214D
:10EA000030461DF075FC14F4002F03D0032130466E
:10EA10001DF06EFCBDE8704001F0C6BF004601204D
:10EA2000094810B500683D21084A01EA90118801A3
:10EA300010600748826E002A1CBFC06E9047BDE878
:10EA4000104001F0B1BF0000046402400C640240B9
:10EA500018450120094810B500683D21084A01EA1F
:10EA60001041080410600748026F002A1CBF406F65
:10EA70009047BDE8104001F097BF000004640240D9
:10EA80000C64024018450120094810B500683D217A
:10EA9000084A01EA9051880510600748826F002AF1
:10EAA0001CBFC06F9047BDE8104001F07DBF000063
:10EAB000046402400C6402401845012010B503486C
:10EAC00020F0CAFABDE8104001F06EBF544E01209C
:10EAD00010B54FF48030FFF7D7F8002808BF10BDFD
:10EAE00001220021092015F067FB4FF48030FFF769
:10EAF000C5F8BDE810404FF48030FFF7B9B800000A
:10EB0000074810B5016801F03D01816005480268C1
:10EB1000002A1CBF40689047BDE8104001F044BF88
:10EB20000060024018450120084810B501683D22E8
:10EB300002EA91118A01826005488268002A1CBF9E
:10EB4000C0689047BDE8104001F02EBF0060024051
:10EB500018450120084810B501683D2202EA11411C
:10EB60000A04826005480269002A1CBF4069904778
:10EB7000BDE8104001F018BF0060024018450120B8
:10EB8000084810B501683D2202EA91518A05826069
:10EB900005488269002A1CBFC0699047BDE8104043
:10EBA00001F002BF0060024018450120074810B57F
:10EBB000416801F03D01C1600548026A002A1CBF9E
:10EBC000406A9047BDE8104001F0EEBE0060024090
:10EBD00018450120084810B541683D2202EA91110C
:10EBE0008A01C2600548826A002A1CBFC06A904739
:10EBF000BDE8104001F0D8BE006002401845012079
:10EC0000084810B541683D2202EA11410A04C26079
:10EC10000548026B002A1CBF406B9047BDE81040BE
:10EC200001F0C2BE006002401845012010B540F25C
:10EC300007410448FEF75FFB15F0B4FABDE8104049
:10EC400001F0B2BE0020014070B5194DE96A886834
:10EC50008860002410F0010F05D010F00C0F0CBFDD
:10EC600001244FF4803410F4807F06D010F4406FFC
:10EC70000CBF44F0020444F4003410F4803F06D08A
:10EC800010F4402F0CBF44F0040444F4802472B606
:10EC900005F10800002106F040FD05F11C002146A9
:10ECA00006F064F862B6BDE8704001F07DBE000079
:10ECB0009845012070B5134CE06AC56815F0030F44
:10ECC0000FD0416921F00201416172B604F11000D8
:10ECD000002106F022FD04F11800012106F046F89B
:10ECE00062B615F0100F08D0E06A1021C16072B64C
:10ECF00004F1200006F03AF862B6BDE8704001F079
:10ED000053BE00009845012070B5134CE06A0569B8
:10ED100015F0030F0FD0416921F01001416172B667
:10ED200004F11000002106F0F8FC04F118000221A3
:10ED300006F01CF862B615F0100F08D0E06A10213A
:10ED4000016172B604F1200006F010F862B6BDE869
:10ED5000704001F029BE00009845012070B5194CA3
:10ED6000E06A45681C21416015F0080F0DD00320B2
:10ED70002060E06A016821F00201016072B604F1CE
:10ED80002800002105F0F2FF62B615F0040F14D040
:10ED9000E06A8169826922F07002826101F00702F3
:10EDA00011F0700F18BF42F0080272B604F1200093
:10EDB00042EA014105F0DAFF62B6BDE8704001F0B9
:10EDC000F3BD00009845012010B54FF48070FEF7A8
:10EDD0005BFF002808BF10BD12F0F8FABDE8104034
:10EDE0004FF48070FEF74ABF10B5034814F000FDE1
:10EDF000BDE8104001F0D8BDDC48012010B5042169
:10EE00000807FFF7A6FA28B11BF0A6FA04210807A5
:10EE1000FFF787F90421BDE810400807FFF781B923
:10EE200010B5084C01212046FFF793FA002808BFCF
:10EE300010BD12F063FB2046BDE810400121FFF732
:10EE400070B900000004004010B5034814F0D0FC75
:10EE5000BDE8104001F0A8BDC448012070B53A4893
:10EE6000446BA1696569DFF8E4C045EA014121F01E
:10EE70007F420146A2EB0C03098C624508BFC1F337
:10EE800047001AD006DC6FF44033D21809D0012AAB
:10EE900015D051E0A3F580227A3A28D0022A31D049
:10EEA0004AE0080A08BF216146D0062202EA112082
:10EEB00001F00101084340F0F00020613CE061688E
:10EEC00021F400716160C16A09680A6842F00102B8
:10EED0000A60616841F480516160C06A00684068FE
:10EEE000022829D2206820F48060206024E0616834
:10EEF00021F400716160006B0068016841F001015C
:10EF0000016019E0C26A126852683AB141F0010129
:10EF10000184206840F4A060206011E0616821F461
:10EF200000716160216841F40071216072B60021B6
:10EF30001C3006F071FC62B615F00A0F18BFA0690C
:10EF4000BDE8704001F030BDC84501200800030055
:10EF50003D4810B5406B416989B201F45F42D2432C
:10EF600042613948026B1268136823F01F03136073
:10EF7000D0F830C0DCF80020136813F0010FFBD18B
:10EF80009CF80820DCF804303D2404FA02F21A60F0
:10EF9000C26A1268136823F01F031360D0F82CC0F4
:10EFA000DCF80020136813F0010FFBD19CF8082057
:10EFB000DCF8043004FA02F21A60002211F4807FB7
:10EFC00082601CBF0122826011F4007F03D082683E
:10EFD00042F00202826011F4806F0DD0426B5368E0
:10EFE00023F400735360426B136843F4007313609F
:10EFF000826842F00402826011F4006F03D08268DC
:10F0000042F00802826011F4804F03D0826842F01F
:10F010002002826011F4805F03D0826842F0100207
:10F02000826011F4004F81681CBF41F04001816093
:10F0300031B172B66FF001011C3006F0EDFB62B623
:10F04000BDE8104001F0B0BCC845012010B5034830
:10F0500020F002F8BDE8104001F0A6BCF448012001
:10F0600010B503481FF0F8FFBDE8104001F09CBC4C
:10F070004C4A0120084810B541683D2202EA9151EE
:10F080008A05C2600548826B002A1CBFC06B90478E
:10F09000BDE8104001F088BC006002401845012026
:10F0A0007CB50C001D461646014601D0601E00E0EE
:10F0B0000020CDE90010064B6A462946304601F093
:10F0C0009BFC002C02D0009A002111707CBD000036
:10F0D0001511010800210160818081717047C9B25A
:10F0E00041EA012141EA014101604160704741006C
:10F0F000080218BF04200A0E18BF40F001004FF0AC
:10F100007F4232EA010108BF40F00200012808BF37
:10F110000520704721F04EB810B54FF00E402DED90
:10F12000028BB0EE408A18EE104A00EB4400B0F1BA
:10F13000506F4AD84FF0FC40B0EB440F22D2B0EEF3
:10F14000C80AF7EE000A30EEC00AF6EE000A60EEDA
:10F15000208A18EE900A20F0FFFF01EE100A14F04A
:10F16000004F1DBFDFED2D0A9FED2D0AB1EE411AB4
:10F17000DFED2C0A08BF9FED2C0AF8EE001A21EEF5
:10F18000218A05E0DFED290A68EE088AB0EE600A00
:10F190009FED271ADFED271A30EE080A48EE811A94
:10F1A0009FED251A08EEA11ADFED241A48EE811A08
:10F1B0009FED231A08EEA11A68EE281ABDEC028B07
:10F1C00001EE810A30EE200A10BD4FF0E440B0EBB2
:10F1D000440F0CD918EE100AFFF789FF042808BF66
:10F1E00001F0A4F9B0EE480ABDEC028B10BD4FF05F
:10F1F0007F40B0EB440F07D2B0EE480ABDEC028B63
:10F20000BDE8104001F07CB9012001F041FABDECED
:10F21000028BBDE8104001F079B900000000C9BFC1
:10F2200022AAFDB90000C93F22AAFD390000000052
:10F2300024FE1C3DC78AD83C1E67383D1B93993D70
:10F24000AFAA2A3E70B54FF068422DED048BF0EE68
:10F25000408A18EE900AB0EE608A18EE101A02EB9F
:10F260004003B3F1654F3CBF02EB4102B2F1654F81
:10F270007DD200BFC0F3C753C1F3C7529A1A1B2AED
:10F2800009DD10F0004F14BF9FED830A9FED830A44
:10F29000BDEC048B70BD12F11A0F36DA11F0004F7D
:10F2A00009D010F0004F0CBF9FED7D0A9FED7D0A45
:10F2B000BDEC048B70BD88EE889A19EE100AFFF73A
:10F2C00016FF042808BF01F031F918EE900AFFF785
:10F2D0000EFF054618EE100AFFF709FF044619EE67
:10F2E000100AFFF704FF042D18BF052D08D1042CC8
:10F2F00018BF052C04D1002804BF022001F0C8F972
:10F30000B0EE490ABDEC048B70BD4200B2EB410F78
:10F310003AD910F0004F19BFDFED630A9FED630A81
:10F32000DFED630A9FED630AB0EE481A0A46B1EEBC
:10F33000688A80F00041F0EE418A10460A1A5200B5
:10F34000B2F1807F34D2484010F0004FDFED5A1AFE
:10F350009FED5A2A1DBFBEEE001A70EEE10A30EE94
:10F36000420AB6EE001A08BF70EEA10A00E040E0C3
:10F3700008BF30EE020AB0EE682A01EE482A08EE15
:10F38000818AC2EE081A15E011F0004F04BF9FED0C
:10F390004C0AF0EE400AD1D010F0004F19BFDFED5B
:10F3A000490A9FED490ADFED490A9FED490AC5E781
:10F3B000C8EE881A21EEA11A9FED462ADFED462AF3
:10F3C00041EE022A9FED452A01EE222ADFED442A72
:10F3D00041EE022A9FED432ABDEC048B01EE222A66
:10F3E00021EE811A01EE020A30EE210A30EE200AE7
:10F3F00070BD4FF07F42B2EB400F28BFB2EB410F20
:10F4000009D2F0EE480AB0EE680ABDEC048BBDE804
:10F41000704001F078B840EA01035B0008BF41F09A
:10F42000FF410BD0B2EB400F08BFB2EB410F08D148
:10F4300020F0804008EE900A21F0804108EE101A7A
:10F4400018E7B2EB400F12BF5FEA410340F0FF4004
:10F4500001F000413FF40EAFB2EB410F12BF5FEA83
:10F46000400200F0004041F0FF413FF403AF4A008A
:10F4700092EA40033FF5FEAE002AACBF9FED1A0AA8
:10F480009FED1A0A68EE808A28EE008A18EE900A2C
:10F4900018EE101AEEE60000DB0FC9BFDB0FC93F04
:10F4A000DB0F4940DB0F49C00000C9BF22AAFDB9EC
:10F4B0000000C93F22AAFD390060ED3EC30ACE37E5
:10F4C00000000000000049C022AA7DBA00004940A7
:10F4D00022AA7D3A2DAD65BD8FB8D53D0FB511BEC1
:10F4E00061C84C3EA8AAAABE0000804F0000802F31
:10F4F00010EE101A08B5444A6846B2EB410F28D9FD
:10F500004FF0E640B0EB410F94BF00204FF0FF30CA
:10F5100000900098002861DB60EE000A10F0010FF7
:10F5200045D010F0020FDFED391A9FED391A00EEC9
:10F53000E11ADFED381A40EE811A21EEA01AF0EE42
:10F54000400A40EE010A08BFF1EE600AB0EE600A20
:10F5500008BD314B21F0004293423CD911F0004FDD
:10F56000DFED2E0A20EE201ADFED2D0A19BF31EE55
:10F57000601A71EE200A31EE201A71EE600ABDEEBB
:10F58000E01A11EE100A9FED271A00F0030000EEBA
:10F59000C10A9FED251A009000EEC10A9FED231AC3
:10F5A00000EEC10A9FED221A00EEC10AB1E79FEDFD
:10F5B000211A9FED210A10F0020F00EE810A9FED43
:10F5C0001F1A00EE801AB7EE000A00EE810A18BF7B
:10F5D000B1EE400A08BD00F0B1FF9AE710EE100A44
:10F5E0004000B0F17F4F3CBFB7EE000A08BD07D125
:10F5F0004FF0010001F04CF8BDE8084000F086BF74
:10F60000BDE8084000F07CBFB61F927E336D4C39D8
:10F61000DA82083CA0AA2ABE490E494683F9223F55
:10F620000000004B0000C93F00A0FD390020A233BC
:10F630001A61342CB93AB2BACA9F2A3DDDFFFFBE27
:10F6400010B510EE104A4FF019406849002200EB47
:10F6500044002DED028B884257D8DFED650A14F087
:10F66000004F60EE200A14BFBEEE001AB6EE001A7C
:10F6700071EE200AFDEEE00A10EE900A00EE900A0C
:10F68000F8EEE00A9FED5B1A00EEC10A9FED5A1AF0
:10F6900000EEC10ADFED590A9FED591A00EE201A5B
:10F6A000DFED580A40EE010A9FED571A574B00F064
:10F6B000030100EE201A21EE000A7B4403EB8103D4
:10F6C000D3ED000A524B7B4403EB810393ED001A08
:10F6D000504B41EE000A7B4403EB8101801091ED19
:10F6E000000A70EE800AEABB00EE100AB8EEC01AFB
:10F6F000DFED491A9FED490ABDEC028B01EE210AAC
:10F70000BCEEC00A20EE200A10BD4FF0FF40A0431F
:10F710001BD04FF0CE40B0EB440F82BFB7EE000AD3
:10F72000BDEC028B10BD3E48B0EB440F28BF012258
:10F7300093D2022000F0ACFF14F0004F15D0BDECC6
:10F74000028BBDE8104000F0F1BE14F5000F02BFBF
:10F750009FED340ABDEC028B10BDBDEC028BBDE801
:10F76000104000E007E000F0CBBEBDEC028BBDE82E
:10F77000104000F0D3BE00EBD07359104FF07E5212
:10F7800002EBC15100EE101AA0EB630002EBC05077
:10F7900060EE200A00EE100A20EE208A18EE100A11
:10F7A00088B118EE100AB0F1FF4F15D018EE100A0C
:10F7B000FFF79DFC042808BF00F0B8FEB0EE480A31
:10F7C000BDEC028B10BD022000F062FFBDEC028B8D
:10F7D000BDE8104000F0AABE022000F059FFBDECC9
:10F7E000028BBDE8104000F099BE00000000501EE2
:10F7F0003BAAB8400070313EF4FD053712BB2A3DEC
:10F8000012BB2A3EFFFFFF3EFFFF7F3F22BB0200ED
:10F8100026BB0200F6BA02000000004B00007E4E3C
:10F820000000A0850000000010EE100AC0F3C751D0
:10F830007F391729A8BF7047DFED140A002970EE41
:10F84000200A0DDAF5EEC00AF1EE10FA1ADD0028F2
:10F85000A8BF002016DAB0F1004F18BF0C4811E025
:10F860000C4ACA40104208BF7047F5EEC00AF1EEDC
:10F8700010FA07DD002804DA4FF4000323FA01F13F
:10F880000844904300EE100A70470000CAF2497124
:10F89000000080BFFFFF7F0010B52DED028BB0EEA2
:10F8A000608AF0EE408A18EE101A18EE900AFDF702
:10F8B00029FB00F07040B0F1004F0CD018EE100A98
:10F8C00020F00040C0F1FF40C00F02BFB0EE480A78
:10F8D000BDEC028B10BDB0EE680ABDEC028B10BD12
:10F8E00010B52DED028BF0EE408A18EE900AB0EEC6
:10F8F000608A20F00040C0F1FF40C00F07D118EE31
:10F90000100A20F00040C0F1FF40C00F2BD018EECD
:10F91000101A18EE900AFDF7FAF900EE100A10EE30
:10F92000100A6FEAD05010F0FF0F04BFBDEC028B3D
:10F9300010BD18EE900A00F0004110EE100A00F021
:10F940000040814204BFBDEC028B10BD18EE101ABE
:10F9500010EE100ABDEC028B61F31E0000EE900A5F
:10F9600030EE600A10BD18EE900A4FF07F41B1EB07
:10F97000400F1CBF18EE100A5FEA4000C7D10120FB
:10F9800000F086FEBDEC028BBDE8104000F0BEBD6D
:10F9900010EE101A0023036021F00042B2F1FF4F75
:10F9A000A8BF7047002A08BF7047B2F5000F0ADAF7
:10F9B0006FF01603DFED0A0A036020EE200A10EE56
:10F9C000101A21F000426FF07D0C0CEBE2521A4449
:10F9D000026021F0FF4040F07C5000EE100A7047BA
:10F9E0000000004B10EE102A6FEAD25212F0FF0F07
:10F9F0001ABFB5EEC00AF1EE10FA704710B5014615
:10FA00002DED028B10EE100AFDF757F908EE100AE3
:10FA100018EE100A6FEAD05010F0FF0F19D0B5EEB3
:10FA2000C08AF1EE10FA1EBFB0EE480ABDEC028BA0
:10FA300010BD022000F02CFE00F078FD10EE101A30
:10FA400018EE100ABDEC028B61F31E0000EE100AE6
:10FA500010BD022000F01CFE00F060FD10EE101A38
:10FA600018EE100ABDEC028B61F31E0000EE100AC6
:10FA700010BD000010EE100A10B50023A0F5000123
:10FA8000B1F1FE4F67D200BF00F500216FF07E029A
:10FA900002EBE15CC1F302524FF07E5101EB0251E7
:10FAA00000EE901AA0EBCC5003EB0C0100EE100A14
:10FAB00051EA020036D030EE601A70EE200A9FED57
:10FAC0003D2A3E4881EE200A9FED3B1A60EE000A77
:10FAD00000EE821A60EE201A61EE810A784401EE8F
:10FAE000101A00EB82009FED362AB8EEC11AD0ED55
:10FAF000001A344841EE021A784401EE101A00EB65
:10FB00008200B8EEC11A90ED002ADFED2F2A01EE37
:10FB1000222AB0EE001A72EE200A40EE010A31EEFF
:10FB2000A00A10BDF7EE000A9FED291A30EE600A18
:10FB3000DFED260A00EE201ADFED260A60EE001A3D
:10FB400040EE010A9FED241A00EE201A61EE810AB0
:10FB500030EE200A10BD4FF07F41B1EB400F03D2D1
:10FB6000BDE8104000F0CCBCB0F1FF4F08BF10BDA5
:10FB7000B5EEC00AF1EE10FA06D2012000F088FDC1
:10FB8000BDE8104000F0C2BCB5EEC00AF1EE10FABC
:10FB900007D1022000F07CFD00F0A8FCB1EE400A85
:10FBA00010BDDFED0E0A6FF0160320EE200A10EEF6
:10FBB000100A69E766F1CC3EAAAA2A3F20B70200E4
:10FBC0000070313F24B70200F4FD053821ED423EBC
:10FBD0000A1180BEC1ABAA3EFFFFFFBE0000004B72
:10FBE00010B510EE100A2DED068BB7EE001A10EED0
:10FBF000901AB0EE418A0022A0F5000CDFEDFE9ACB
:10FC00004FF00073BCF1FE4F4FF07F4403EB410C0B
:10FC100080F0B481BCF1804FC0F02082F7490144EC
:10FC20009FEDF73AB1F5005F40F2D48200F58021F4
:10FC3000CB0C03F00F0101EE901AC3F307137F3BC7
:10FC4000A0EBC350B8EEE12A00EE100A1A44DFED33
:10FC5000ED2AF0EE411A42EE221AF0EE613A70EE11
:10FC6000232A30EE632A12EE900A00F500606FF34B
:10FC70000B0001EE900A73EEE13A33EE804AC1EEDA
:10FC8000223A22EE230A10EE100A00F500606FF30C
:10FC90000B0000EE100A00EE612A00EE442A62EE2C
:10FCA000232A70EE221A21EEA12ADFEDD73A02EEC6
:10FCB000233A23EE023A20EE012A22EE811A03EEC5
:10FCC000211A32EE010A10EE100A00F500606FF3FF
:10FCD0000B0000EE100A72EE401A31EE812A9FED01
:10FCE000CB1A60EE011A9FEDCA1A20EE011A9FEDA1
:10FCF000C90A02EE001A31EE810A10EE100A00F570
:10FD000000606FF30B0000EE100AC34871EEC01ADA
:10FD100031EE812A784400EBC10090ED003AD0ED3D
:10FD2000011A100101EE100AF8EEC12A32EE211A72
:10FD300031EE001A31EE031A31EE221A11EE100ADA
:10FD400000F500606FF30B0009EE100A39EE621A3D
:10FD500031EE431A31EE400A30EE610A32EE40AA2B
:10FD600010EE900A002100F500606FF30B0008EE22
:10FD7000900A084670EEE8AAFDF7DFF829EE280A97
:10FD800000F00C01F0EEC00A10EE900AB0F18B4FBB
:10FD90000DDD10EE900AB4EB400F08D310EE100A00
:10FDA0004FF08B4262F31E0008EE900A13E069EEFA
:10FDB0002A0A38EEAA1A4AEE010A30EE201A11EE8B
:10FDC000100A00F500606FF30B0008EE900A30EEA9
:10FDD000680A70EE209A0C20FDF7AFF838EEA90AF9
:10FDE000B5EEC00AF1EE10FA34BFFEEE000AF6EEF0
:10FDF000000A30EE800ABDEEC00A10EE100A0111B2
:10FE000000EE101AF8EEC00A00EE100AB8EEC00AB2
:10FE100038EEC00A30EE290ADFED801A9FED801A15
:10FE200000EE211ADFED7F1A7F4900F00F0040EE4F
:10FE3000011A21EE800A794401EB800191ED001A4C
:10FE40007A49794401EB8001D1ED001A784901EE3D
:10FE5000801A794401EB8000764990ED000A31EE7A
:10FE6000001AB0EEE00A10EE100A884215DA10EE21
:10FE7000100AB4EB400F10D39FED6F0A30EE800AEA
:10FE8000DFED6E0A20EE200A68EE010ABDEC068B5B
:10FE9000BCEEC00A20EE200A10BD10EE100A684920
:10FEA000884243DA10EE100AB4EB400F3ED3BDEEA9
:10FEB000E00A68EE010A10EE100A00EBD072511051
:10FEC000C90501F17E5100EE101AA0EB6200C005D9
:10FED00060EE200A00F17E5000EE100A60EE808A8B
:10FEE00018EE900AB4EB400F0FD1022000F0D0FBC7
:10FEF00000F014FB10EE101A18EE100ABDEC068B81
:10FF000061F31E0000EE100A10BD18EE900A4000CA
:10FF100011D018EE900AFFF7EAF8042808BF00F0A5
:10FF200005FBB0EE680ABDEC068B10BDF5EEC00A0D
:10FF3000F1EE10FA0FD2022000F0AAFB00F0F6FA60
:10FF400010EE101A18EE100ABDEC068B61F31E00BD
:10FF500000EE100A10BD022000F09AFB00F0DEFA5D
:10FF600010EE101AB0EE480A10EE100ABDEC068B27
:10FF700061F31E0000EE100A10BD00BFBCF1804FFF
:10FF80006CD300BF00F1FF43B3F1FE4F24D200BF9A
:10FF9000B0EEC00A10EE100AC1F3C7537F2B0DDB81
:10FFA000972BBFF63BAEC3F196034FF0010C0CFA52
:10FFB00003F3A3F1010C1CEA010F08D0012000F0AB
:10FFC00067FBBDEC068BBDE8104000F09FBA0B420A
:10FFD00018BFBFEE008A21E643001CBF4FF08073BC
:10FFE000B3EB400F34D96FF01A02DFED161A20EE92
:10FFF000210A10EE100A27E000000000001080C067
:020000040801F1
:10000000ABAAAA3E0000803D7EE24C3E00B03842E2
:10001000D49AB8BB3BAA384228B50200FC596337D2
:10002000C9FF753A1872313DC6B40200FAB4020035
:100030006AB402000000FC420000FE420000004BD7
:10004000000040430000004D10F0004FA0D1E5E556
:10005000A0F50003B3F1FE4F21D2DFE503EB41032E
:10006000B3F1007F11D3F5EEC00AF1EE10FA05D11D
:10007000430018BFB4EB400F76D883E701F000418E
:1000800041F0FC5100EE901A7CE7B3F1807F06D27C
:1000900010EE903AA3F5000300EE903A72E720F0DC
:1000A00000426FF0FF4C604C02EB0C03A34210D3F4
:1000B00021F000439C44A4450BD3B0F17E5F18BFF0
:1000C0005FEA410C50D0B2F1FF4F98BFB3F1FF4F40
:1000D00005D9BDEC068BBDE8104000F014BAB0F1B4
:1000E000FF4F0FD0C1F3C7527F2A09DB972A11DADD
:1000F000C2F19602012303FA02F2531E0B4205D00D
:10010000002208E011F0004F55D128E00A4218BF44
:10011000012200D1022210F5000F13D028B3B0F154
:10012000004F26D010F1814F4FD04FF0FE42B2EB7E
:10013000400F94BF01200020012202EBE1718842B0
:1001400039D10CE011F0004F02D0012A38D032E052
:10015000012A02BF9FED350ABDEC068B10BD9FED55
:10016000340ABDEC068B10BD2FE011F0004F0CD10E
:1001700021E0B1F1FF4F1ED011F5000F05D011F0B5
:10018000004F15D00AB1012A08D0022000F080FAF1
:10019000BDEC068BBDE8104000F0A8B9022000F0CD
:1001A00077FA00F0A3F9BDEC068BB1EE400A10BD62
:1001B0000AB1012A04D0B0EE690ABDEC068B10BD6D
:1001C000BDEC068B9FED1B0A10BDBDEC068BB7EE98
:1001D000000A10BD30EE410AB5EE001A9FED172A55
:1001E00000EE413AB6EE001A60EE001A00EE431A35
:1001F00061EEC11A9FED101A20EE011A20EE020ADC
:100200009FED0F2A01EE820A71EE001A11EE900A9C
:1002100000F500606FF30B0009EE100A31EE491A89
:1002200031EE00AA9CE50000FFFF3F00000080FFC8
:100230000000807F0000008000B0B841D49A38BB35
:100240003BAAB84110B52DED028BB0EE408A18EEF6
:10025000100AFCF73EFD01EE100A18EE100AB7EE88
:10026000000A78EE410A10F0004F4FF07F4010EE88
:10027000901A12D0B1F13F4F24BF10EE901AB0EB9C
:10028000410F12D210EE901AB1F17C5F1CDD10EE1E
:10029000901AB0EB410F17D314E0B1F13F4F07D9DB
:1002A00010EE901AB0EB410F02D331EE401A0BE082
:1002B00010EE901AB1F17C5F06DB10EE901AB0EBF5
:1002C000410F01D331EE001A18EE100ABDEC028B7B
:1002D00011EE101A61F31E0000EE100A10BD0000AE
:1002E00000B510EE101A2DED028B81B0524A68460F
:1002F000B2EB410F2ED94FF0E640B0EB410F94BF67
:1003000000204FF0FF3000900098B0EE408A0028A7
:100310006ADB10F0010F4BD068EE080A9FED471A18
:100320009FED470A00EE810A9FED461A10F0020F7A
:1003300000EE801AB7EE000A00EE810A02BF01B09B
:10034000BDEC028B00BD00BF01B0B1EE400ABDECB8
:10035000028B00BD3C4B21F00042934241D911F089
:10036000004FDFED3A0A20EE201ADFED390A19BFFF
:1003700031EE601A71EE200A31EE201A71EE600A39
:10038000BDEEE01A11EE100A9FED321A00F00300E4
:1003900000EEC10A9FED301A009000EEC10A9FEDF9
:1003A0002F1A00EEC10A9FED2E1A00EEC10AABE72C
:1003B00028EE080A9FED2B1ADFED2B0A10F0020F32
:1003C00040EE410A9FED291A00EE201A61EE000A64
:1003D000B0EE480A08EE200AB6D101B0BDEC028B9F
:1003E00000BD00F0ABF88FE718EE100A4000B0F146
:1003F0007F4F0DD218EE100AFEF779FE042808BFD1
:1004000000F094F8B0EE480A01B0BDEC028B00BDDC
:1004100009D1012000F03CF901B0BDEC028B5DF880
:1004200004EB00F073B801B0B0EE480ABDEC028BEB
:100430005DF804EB00F064B8B61F927EB93AB2BA28
:10044000CA9F2A3DDDFFFFBE490E494683F9223F80
:100450000000004B0000C93F00A0FD390020A2337E
:100460001A61342C336D4C39DA82083CA0AA2ABEBA
:1004700000B52DED048BB0EE409AF0EE609A83B09B
:1004800051EC190BFCF7C9FC41EC180B18EE100AE3
:1004900018EE901A8DED008B002818BF012008433C
:1004A00020F00040C0F17F6000F1E040C00F14D0A8
:1004B00019EE101A19EE900A8DED009B002918BF55
:1004C0000121084320F00040C0F17F6000F1E040CE
:1004D000C00F04BF012000F0DBF8B0EE480A03B003
:1004E000F0EE680ABDEC048B00BD0000DFED030AEE
:1004F000B7EE001A81EE200A7047000000000000ED
:1005000030EE000A704730EE200A7047DFED020A35
:1005100080EEA00A70470000000000009FED020A74
:1005200020EE000A70470000000000709FED020AF4
:1005300020EE000A70470000000000102DE9F001D5
:100540004FF07F42B2EB410F9FBF4FF0FF31016090
:10055000BDE8F00170474FF0004242EA0123C1F3C9
:10056000C752783A551112F01F0C434CCCF12006BB
:100570007C44C1F3C752A2F178024FEA621204EB45
:10058000820254F8254008BFD2E9015612D05568BE
:1005900004FA0CF425FA06F73C43976805FA0CF5C3
:1005A00027FA06F8D26807FA0CFCF24045EA08057B
:1005B0004CEA0206A4FB034CA5FB0352A6FB036313
:1005C0001D449D4234BF012600261319334416B141
:1005D000934202D903E0934201D2012200E00022BB
:1005E000624402F1200C9206DC0C42EA443200EE36
:1005F000102A5B03DFED210AF8EEC01A00EE103A74
:100600004FEA9C1C11F0004FB8EE400AC0F800C041
:1006100020EE201A00EE105ADFED190AB8EE400A5B
:1006200020EE200A71EE810A70EE800A10EE902A08
:1006300002F500626FF30B0200EE902A70EEE11AF1
:1006400031EEC11ADFED101A30EE411A9FED0D0A9E
:1006500020EE800A01EE210A9FED0C1A00EE810ABD
:1006600004BFBDE8F0017047CCF180510160BDE8E6
:10067000F001B1EE400A70470CAE020000000036F7
:100680000000802C22AAFD29DB0FC92F0000C92FF2
:1006900001490860704700003C040020044820F035
:1006A000070104480160044921F0070141607047D7
:1006B000B77E012010040020000002202DE9FF5F1A
:1006C00082B00021DDE90430020DDDF840B00343C3
:1006D00018D044F61050A2F2FF324243151411987C
:1006E00001281FD0A5EB0B00401C5FEA000A4FF069
:1006F00000064E4FDFF83891B046504615D5CAF186
:10070000000413E0119801244AA3012801D16FEAE3
:100710000B010298119AC0E90031C0E9024206B00B
:10072000BDE8F09FCBF10000DFE704460021404A1E
:10073000491842EB0450CDE9001012E0E00707D061
:1007400032463B4640464946FCF74DF880468946CE
:1007500032463B4610461946FCF745F806460F461A
:100760006410002CEAD1DDE90401DDE90023BAF1CF
:10077000000F06DAFCF737F842464B46FCF733F831
:1007800005E0FCF7A2F842464B46FCF79EF804460B
:100790000E460022284BFCF789F903D84FF0FF30B2
:1007A000014607E00022254B20463146FBF774FF47
:1007B000FCF790FB102409E0002C0ADB0A2200233E
:1007C000FCF7BEF9039B30321A55641E50EA010251
:1007D000F2D1641C039AC4F111031444119A012A42
:1007E00003D0012208430DD10AE0084304D00020C1
:1007F0004FF0110B119072E7A3EB0B056D1E0DE08E
:100800005B4504DD4FF0000205F1010504E003DA69
:100810004FF00002A5F10105002AECD002981199D1
:10082000C0E90231C0E9004579E70000000014404A
:100830000000F03F300000000000F0430000E03F07
:100840000648054940F8081B002140F8081B40F8FD
:10085000041C04F099BC0000394D0108A04201209D
:10086000FEE730380A2801D2012070470020704787
:1008700010B504461B48026840F2FF110A430260AB
:1008800019480268114301602146184813F06EF9B7
:1008900004F11C01164813F069F904F138011548F8
:1008A00013F064F904F15401134813F05FF904F1F3
:1008B0007001124813F05AF904F18C01104813F03A
:1008C00055F904F1A8010F4813F050F904F1C401DF
:1008D0000D4813F04BF904F1E001BDE810400B485E
:1008E00013F044B930380240503802400000024052
:1008F0000004024000080240000C024000100240C8
:100900000014024000180240001C02400020024077
:100910002DE9F04F02F00306C2F38005C2F3C104D3
:10092000C2F3411CC2F3C31800224FF00F094FF06D
:10093000010A4FF0030B11F0010F29D05307DB0E12
:1009400008FA03F709FA03F3082A34BFD0F820E0C5
:10095000D0F824E02EEA03033B4334BF0362436232
:100960000AFA02F3476827EA03032B434360530064
:1009700087680BFA03F39F4327438760C7689F4349
:1009800047EA0C07C760076827EA0303334303609D
:10099000490808BFBDE8F08F6D00A400B6004FEA1B
:1009A0008C0C521CC7E7000010B572B60E480068E8
:1009B00010F4006F15D0F1EE100AEFF30980A0F1EA
:1009C00068044FF08070E0610848006884F309888B
:1009D000206604F059FD00280CBF05480548A061B9
:1009E00010BD62B610BD000004ED00E03CEF00E079
:1009F00027C0000823C000082DE9FF4F95B09A4694
:100A0000884606460025EEE1252877D100242746B2
:100A1000F94A0121039400E0044316F8013F203B0A
:100A200001FA03F01042F7D130782A2811D06FF084
:100A30002F033078A0F13002092A16D8039A44F027
:100A4000020402EB820203EB42021044761C039084
:100A5000EFE758F8042B0392002A03DA504244F4DB
:100A60000054039044F00204761C30782E2816D1EE
:100A700016F8010F44F004042A280DD06FF02F025D
:100A80003078A0F13003092B09D807EB870302EB7C
:100A90004303C718761CF3E758F8047B761C3078BC
:100AA0006C280FD006DC4C2817D068280DD06A2897
:100AB00014D104E0742810D07A280FD10DE044F44A
:100AC00000140AE044F4801401E044F44014727805
:100AD000824202D104F58014761C761C3078662898
:100AE0000BD013DC582877D009DC002875D04528B6
:100AF000F6D04628F4D047281AD193E118E06328AD
:100B000035D0642879D0652812D18BE1702873D054
:100B100008DC6728F1D069286FD06E280DD06F28C7
:100B200006D1ACE073282CD0752874D0782853D027
:100B30005246179990476D1C54E1C4F302500228A5
:100B400009D003280DD0D8F8001004280DD00D606E
:100B500008F1040846E1D8F80010EA17C1E900528C
:100B6000F6E7D8F800100D80F2E70D70F0E718F8FE
:100B7000041B8DF8001000208DF80100EB460120C9
:100B800003E058F804BB4FF0FF3061074FF000015D
:100B900002D40DE009F101018946B9420FDA81451D
:100BA000F8DB1BF809100029F4D108E009F1010174
:100BB00089468142FADB1BF809100029F6D1039817
:100BC0005346A0EB090721463846179A00F080FAF1
:100BD000284400EB090507E044E008E10DE01BF8BC
:100BE000010B524617999047B9F10109F7D25346C4
:100BF00021463846179AF2E039E00A21C4F302523E
:100C00004FF0000B0091022A06D058F8040BC117D0
:100C1000032A09D00AE023E008F1070020F00702C8
:100C2000F2E80201904605E000B2C117042A01D1A2
:100C300040B2C117002906DA0A460021404261EBA2
:100C400002012D2202E0220504D52B228DF804207A
:100C5000012203E0E20701D02022F7E7914657E0A6
:100C60000A2100E010214FF0000B00910BE0102151
:100C70004FF0000B44F004040827009103E0082023
:100C80004FF0000B0090C4F30252022A05D058F82E
:100C9000040B0021032A08D008E008F1070020F027
:100CA0000702F2E80201904603E080B2042A00D174
:100CB000C0B24FF0000922072AD53278702A07D037
:100CC000DDF800C08CF0100C5CEA0B0C05D00EE0D7
:100CD00040228DF80420012208E050EA010306D0EA
:100CE00030238DF804308DF8052002229146009BB8
:100CF00083F0080353EA0B030AD150EA010201D141
:100D0000620705D530228DF804204FF001097F1EBF
:100D10003278582A04D039A20C920CAA02920BE025
:100D20003BA2F9E75B46009AFBF70AFF0C9B9B5C32
:100D3000029A521E0292137050EA0102F2D10298F6
:100D400004A9081A00F1200B600702D524F48034AE
:100D500000E001275F4502DDA7EB0B0000E000206B
:100D600000EB0B01009003984944401A0390E00304
:100D700006D453462146179A039800F0A9F9054472
:100D8000002706E001A85246C05D179990476D1CE8
:100D90007F1C4F45F6DBE0030CD553462146179ADE
:100DA000039800F095F9054404E030205246179965
:100DB00090476D1C0099481E00900029F5DC08E062
:100DC0000298029952460078491C0291179990475F
:100DD0006D1CBBF10001ABF1010BF1DC5BE100F03C
:100DE00065F90544761C307800287FF40DAE19B003
:100DF0002846BDE8F08F0000092801003031323369
:100E00003435363738396162636465660000000046
:100E10003031323334353637383941424344454630
:100E200000000000600700D4062708F1070020F04A
:100E30000700F0E80223804603F0004C5FEA0C0054
:100E400001D097A009E0200501D596A005E0E007B4
:100E500001D095A001E0AFF24C001390307823F060
:100E6000004365280CD006DC452809D046281DD053
:100E700047287FD13BE0662818D067287AD136E032
:100E80000021112F01DB112000E0781CCDE90001C9
:100E900004A90CA8FFF712FCDDE90D010C9A4FF034
:100EA000000B07F10109109200914EE04FF0004055
:100EB0000097CDE9011004A90CA8FFF7FFFBDDE9BD
:100EC0000D020C9B0F994FF0000B9146109300926E
:100ED00011B9791C00EB0109B7EB090003D4C0F18B
:100EE000FF3B07F10109A9EB0700019042E0012F48
:100EF00000DA01270021112F01DD112000E0384622
:100F0000CDE9000104A90CA8FFF7D8FBDDE90D012C
:100F10000C9A00914FF0000BB946109221070FD4A4
:100F2000009A4A4503DA914601E0A9F10109B9F1B5
:100F3000010F05DD109AA9F10101515C3029F4D0AF
:100F4000B84202DA10F1040F03DA0121CDE90110F1
:100F500010E0002803DC8344A9EB000102E0411CFF
:100F6000494500DD8946A0EB0B00401C01904FF085
:100F700000400290200705D40198484502DB4FF05D
:100F8000FF30019000208DF84B0002980DF14B07C7
:100F9000B0F1004F25D002200C902B200D9002982C
:100FA00000280CDA404202902D200D9007E00A2123
:100FB0000298FBF7AFFD3031029007F8011D0C9944
:100FC000481E0C900029F2DC02980028EFD1791E0F
:100FD0000D980870307800F0200040F0450007F8C8
:100FE000020D11A8C01BC01D02901398007800B11B
:100FF000012000EB0901019801EBE0710298014426
:101000000398401A401E0390E00306D4534621463D
:10101000179A039800F05CF805441398007818B10B
:101020005246179990476D1CE00323D5534621463D
:10103000179A039800F04CF805441BE0BBF1000F31
:1010400007DB0098584504DD1098179910F80B003D
:1010500001E0179930205246904701980BF1010B9F
:10106000401E05F10105019004D12E20524617992A
:1010700090476D1CB9F10001A9F10109DEDC05E022
:1010800017F8010B5246179990476D1C0299481E9C
:1010900002900029F4DC53462146179A03989EE6F5
:1010A0002D0000002B000000200000002DE9F04181
:1010B000044600251E461746880404D405E0394638
:1010C0002020B0476D1C641EF9D52846BDE8F0818C
:1010D0002DE9F041044600251E469046C80301D57F
:1010E000302700E02027880404D505E04146384633
:1010F000B0476D1C641EF9D52846BDE8F08100009C
:1011000003480021006040608160006140617047D9
:10111000C04201204A68002A06D00A68531C0B60AE
:1011200010704868401E48607047000002228160CD
:101130000277002242770423C377C0E90F2182633C
:101140000262012383778261064A0261516941612B
:10115000086100F1280150618162091DC162836448
:1011600001637047C042012010B50A4C002086B0D0
:10117000E067411ECDE90010CDE904000290039024
:10118000684604F065FA684604F068FA0298E06779
:1011900006B010BDC042012070B50446406B00256A
:1011A000072828BF70BDDFE800F047041447474018
:1011B000470094F84A1094F84B0041EA0021E06B94
:1011C000884206D2E268118AB0FBF1F301FB1300FA
:1011D00098B103206063E16820468A69294615704A
:1011E000D5605560956028F033FA72B62046628962
:1011F000002112F0010F16D110E052692946204655
:101200001570D5605560956028F049FA72B60021D6
:10121000204628F0FBF862B602201CE042F00102F2
:10122000428128F0F6FC62B670BD226C002A1CBF19
:1012300020469047656370BD0021204628F052FC8F
:101240000021204628F058FC6068026812B1052190
:10125000204690470620606370BD70B50446406B21
:101260000025072828BF70BDDFE800F024242417DC
:101270000424240005206063E16820464A69294669
:101280001570D5605560956028F009FA72B6002196
:10129000204628F0BBF862B670BDE06880698068BF
:1012A000002818BF70BD216C00291CBF204688474C
:1012B000656370BD0021204628F014FC0021204603
:1012C00028F01AFC6068026812B105212046904798
:1012D0000620606370BD70B50025044600F144022D
:1012E000456328F08BFB6068816811B12046884710
:1012F00040B994F8440010F0600F2BD120460FF055
:1013000093FA38B394F84A1094F84B0041EA00205D
:10131000E16B814288BFE06394F84400E36B10F016
:10132000800F4FF001003BD02BB36063E168D4F82D
:1013300038C020464A6929461570C2F80CC0C2E977
:10134000013528F0ACF972B60021204628F05EF88D
:1013500062B670BD0021204628F0C4FB0021204663
:1013600028F0CAFB6068026812B105212046904748
:101370000620606370BD03206063E16820468A69CF
:1013800029461570D5605560956028F061F972B6F0
:1013900020466289002112F0010F18D062B670BD9C
:1013A000DBB104206063E168D4F838C020468A6964
:1013B00029461570C2F80CC0C2E9013528F048F979
:1013C00072B620466289002112F0010FE6D142F088
:1013D0000102428128F01DFCE0E705206063E1681E
:1013E00020464A6929461570D5605560956028F0F9
:1013F00056F972B60021204628F008F862B670BD92
:1014000010B50446022000212060A4F84C1084F896
:101410004E1084F84F1021816181084604EB800250
:10142000401CD1600328F9D92046616328F0F0FA06
:1014300060680268002A08BF10BD00212046BDE890
:10144000104010470548A0F11C01C86108624FF028
:10145000FF3048620020886270470000DC420120B3
:101460002DE9F0412DED048B26F08AFE0746002081
:1014700025F0BCFF9E4DE8882A8969899D4CE36B65
:101480000344E363236C1A442264E26C0A44E2647A
:10149000626C801AA26C226D891AA26B521CA26324
:1014A00000EE101A00EE900AB8EEC00AF8EEE00A5C
:1014B000B1EE400A28F069FFDFED8F0A20EE200A26
:1014C00084ED090A94ED0A0A94ED091AA16930EE37
:1014D000411AD1ED5D0A94ED0A0A00EEC10A84EDCD
:1014E0000A0AE88A00EE100AB8EE400A9FED838AE5
:1014F00020EE080ADFED828AD1ED0E0A002620EEEA
:10150000280AF4EEC00AF1EE10FA08DCD1ED0F0A59
:10151000F4EEC00AF1EE10FA28BFA66011D2A0685E
:10152000401CA06008280CDBD1ED0E0AB4EEE00AE6
:10153000F1EE10FA34BF022001200122002112F046
:101540003BFEA06990F8481059B194ED090AD0ED1E
:10155000080AB0EEC00AB4EEE00AF1EE10FA10DDAF
:101560000AE094ED0A0AD0ED080AB0EEC00AB4EE23
:10157000E00AF1EE10FA04DD01220021042012F04D
:101580001BFEE068411CE160A069D0F870214FF0BB
:101590000108B7EE009A8A422ADA5A49E6600868DA
:1015A0004A6890421CD094ED050A84ED040A08684C
:1015B000A1F5005202EB8002401C0860D2ED000A47
:1015C000C4ED050A0A68D01702EB50506FF30A0009
:1015D000101A086084ED0D0A84F80480A67021E0DA
:1015E000A078002808BF1EF01BFF84F8028019E0D5
:1015F000A278BAB9D0F8700194ED052A00EE100A6D
:10160000D4ED041AB8EEC00A30EE091ADFED3E0A36
:1016100000EE101AB8EEC00A28F0AAFE84ED0D0AFA
:1016200084F804802079002857D094ED0D0A84EDC9
:101630000D0AE06A354E012808D0022809D0032897
:1016400004BF86ED000A84F8048011E01EF014F84F
:101650000EE0E88A00EE900AF8EE600A60EE880A72
:1016600020EEA81AC0EE010AB0EE600A1EF004F8DF
:10167000E06A032831D1E88AD4ED0A0A00EE100AA4
:10168000A069B8EE400A90ED5E1A20EE080A20EE3E
:10169000288A96ED000A70EE600A96ED020A00EEC6
:1016A000810A86ED010A94ED070A89EE001A96ED8B
:1016B000020A61EE200A90ED5F1A06F1080001EEC1
:1016C000200A86ED020AB0EE480A29F03BF8D6ED72
